:020000040000fa
:080000000002040000000000f2
:020000040000fa
:04000800fa020000f8
:020000040000fa
:04000c000c030000e1
:020000040000fa
:0400100024030000c5
:020000040000fa
:0400140002030000e3
:020000040000fa
:0400180014030000cd
:020000040000fa
:04001c001c030000c1
:020000040000fa
:040020002c030000ad
:020000040000fa
:0400240034030000a1
:020000040000fa
:04002800340300009d
:020000040000fa
:04002c003403000099
:020000040000fa
:040030003403000095
:020000040000fa
:040034003403000091
:020000040000fa
:04003800340300008d
:020000040000fa
:04003c003403000089
:020000040000fa
:040040003403000085
:020000040000fa
:040044003403000081
:020000040000fa
:04004800340300007d
:020000040000fa
:04004c003403000079
:020000040000fa
:040050003403000075
:020000040000fa
:040054003403000071
:020000040000fa
:04005800340300006d
:020000040000fa
:04005c003403000069
:020000040000fa
:040060003403000065
:020000040000fa
:040064003403000061
:020000040000fa
:04006800340300005d
:020000040000fa
:04006c003403000059
:020000040000fa
:040070003403000055
:020000040000fa
:040074003403000051
:020000040000fa
:04007800340300004d
:020000040000fa
:04007c003403000049
:020000040000fa
:040080003403000045
:020000040000fa
:040084003403000041
:020000040000fa
:04008800340300003d
:020000040000fa
:04008c003403000039
:020000040000fa
:040090003403000035
:020000040000fa
:040094003403000031
:020000040000fa
:04009800340300002d
:020000040000fa
:04009c003403000029
:020000040000fa
:0400a0003403000025
:020000040000fa
:0400a4003403000021
:020000040000fa
:0400a800340300001d
:020000040000fa
:0400ac003403000019
:020000040000fa
:0400b0003403000015
:020000040000fa
:0400b4003403000011
:020000040000fa
:0400b800340300000d
:020000040000fa
:0400bc003403000009
:020000040000fa
:0400c0003403000005
:020000040000fa
:0400c4003403000001
:020000040000fa
:0400c80034030000fd
:020000040000fa
:0400cc0034030000f9
:020000040000fa
:0400d00034030000f5
:020000040000fa
:0400d40034030000f1
:020000040000fa
:0400d80034030000ed
:020000040000fa
:0400dc0034030000e9
:020000040000fa
:0400e00034030000e5
:020000040000fa
:0400e40034030000e1
:020000040000fa
:0400e80034030000dd
:020000040000fa
:0400ec0034030000d9
:020000040000fa
:0400f00034030000d5
:020000040000fa
:0400f40034030000d1
:020000040000fa
:0400f80034030000cd
:020000040000fa
:0400fc0034030000c9
:020000040000fa
:0401000034030000c4
:020000040000fa
:0401040034030000c0
:020000040000fa
:0401080034030000bc
:020000040000fa
:04010c0034030000b8
:020000040000fa
:0401100034030000b4
:020000040000fa
:0401140034030000b0
:020000040000fa
:0401180034030000ac
:020000040000fa
:04011c0034030000a8
:020000040000fa
:0401200034030000a4
:020000040000fa
:0401240034030000a0
:020000040000fa
:04012800340300009c
:020000040000fa
:04012c003403000098
:020000040000fa
:040130003403000094
:020000040000fa
:040134003403000090
:020000040000fa
:04013800340300008c
:020000040000fa
:04013c003403000088
:020000040000fa
:040140003403000084
:020000040000fa
:040144003403000080
:020000040000fa
:04014800340300007c
:020000040000fa
:04014c003403000078
:020000040000fa
:040150003403000074
:020000040000fa
:040154003403000070
:020000040000fa
:04015800340300006c
:020000040000fa
:04015c003403000068
:020000040000fa
:040160003403000064
:020000040000fa
:040164003403000060
:020000040000fa
:04016800340300005c
:020000040000fa
:04016c003403000058
:020000040000fa
:040170003403000054
:020000040000fa
:040174003403000050
:020000040000fa
:04017800340300004c
:020000040000fa
:04017c003403000048
:020000040000fa
:040180003403000044
:020000040000fa
:040184003403000040
:020000040000fa
:04018800340300003c
:020000040000fa
:04018c003403000038
:020000040000fa
:040190003403000034
:020000040000fa
:040194003403000030
:020000040000fa
:04019800340300002c
:020000040000fa
:04019c003403000028
:020000040000fa
:0401a0003403000024
:020000040000fa
:0401a4003403000020
:020000040000fa
:0401a800340300001c
:020000040000fa
:0401ac003403000018
:020000040000fa
:0401b0003403000014
:020000040000fa
:0401b4003403000010
:020000040000fa
:0401b800340300000c
:020000040000fa
:0401bc003403000008
:020000040000fa
:0401c0003403000004
:020000040000fa
:0401c4003403000000
:020000040000fa
:0401c80034030000fc
:020000040000fa
:0401cc0034030000f8
:020000040000fa
:0401d00034030000f4
:020000040000fa
:0401d40034030000f0
:020000040000fa
:0401d80034030000ec
:020000040000fa
:0401dc0034030000e8
:020000040000fa
:0401e00034030000e4
:020000040000fa
:0401e40034030000e0
:020000040000fa
:0401e80034030000dc
:020000040000fa
:0401ec0034030000d8
:020000040000fa
:0401f00034030000d4
:020000040000fa
:0401f40034030000d0
:020000040000fa
:0401f80034030000cc
:020000040000fa
:0401fc0034030000c8
:020000040000fa
:0402000034030000c3
:020000040000fa
:0402040034030000bf
:020000040000fa
:0402080034030000bb
:020000040000fa
:04020c0034030000b7
:020000040000fa
:0402100034030000b3
:020000040000fa
:0402140034030000af
:020000040000fa
:0402180034030000ab
:020000040000fa
:04021c0034030000a7
:020000040000fa
:0402200034030000a3
:020000040000fa
:04022400340300009f
:020000040000fa
:04022800340300009b
:020000040000fa
:04022c003403000097
:020000040000fa
:040230003403000093
:020000040000fa
:04023400340300008f
:020000040000fa
:04023800340300008b
:020000040000fa
:04023c003403000087
:020000040000fa
:040240003403000083
:020000040000fa
:04024400340300007f
:020000040000fa
:04024800340300007b
:020000040000fa
:04024c003403000077
:020000040000fa
:040250003403000073
:020000040000fa
:04025400340300006f
:020000040000fa
:04025800340300006b
:020000040000fa
:04025c003403000067
:020000040000fa
:040260003403000063
:020000040000fa
:04026400340300005f
:020000040000fa
:04026800340300005b
:020000040000fa
:04026c003403000057
:020000040000fa
:040270003403000053
:020000040000fa
:04027400340300004f
:020000040000fa
:04027800340300004b
:020000040000fa
:04027c003403000047
:020000040000fa
:040280003403000043
:020000040000fa
:100400002f0221000eff21000e01880000000000d5
:10041000000020000000e000020032000001200087
:100420002002880014000700910007000000e0008f
:1004300003003a00c06f20000100200002003700d6
:100440000000200001002000810f70000100320038
:100450000f000700000020000000e0000200320052
:1004600000000200000000000c0702000000000075
:100470000040da000000fe00200020000000e00044
:1004800002003200100020009001880000000600e9
:10049000a1028800800478000000eb001f003700f4
:1004a000e284440054a0b4009905ba00e2844400f8
:1004b00054a0b4009906ba00e284440054a0b400e9
:1004c0000006eb00476fde00fd07b200ae018800ba
:1004d000636ce10003003a000ad801000000eb0061
:1004e0000e003700606ce10008003a00004deb00a0
:1004f0000a05e800020039003420ec000af0a000f0
:100500008b05e900f9ff3e00040037006168e10057
:10051000010032000086eb000b00070019c7ba008b
:100520000e04e0001905ba0003003a000a00e000da
:10053000dbff3a0000000600fe07b200ae028800b2
:100540008a047800f5ff37000cd0a300e20f4d00bd
:100550001c00390089027800354dba000a05e80010
:10056000020039003420ec000af0a0008b05e900fd
:100570000f003200254dba000a05e80002003900dc
:100580003420ec000af0a0008b05e90008003200de
:100590000c00e0000600320015cdba000a05e800a4
:1005a000020039003420ec000af0a0008b05e900bd
:1005b0008984e80054a0b4000b00e000e2ff3a0098
:1005c000000006009902ba00055d78008b05e9007d
:1005d000f7ff3200c82ade00055d78008b05e900d0
:1005e000f3ff32000c00e000f1ff320019ddba0029
:1005f000eeff37003600f800c028a9000000eb002d
:10060000f20107003600f800f4010700c048a90015
:1006100010002000ed0107003600f800c068a900b6
:1006200020002000e90107003600f800c088a9007a
:1006300030002000e50107003600f800c0a8a9003e
:1006400040002000e10107003600f800c608a900bc
:1006500070002000dd0107003600f800c488a90002
:10066000a0002000d90107000040da000000fe00d1
:040670000000050081
:020000040000fa
:100674000000fa0000102300203a88004827ef0009
:100684004e27ef0000042000303a88004420a900df
:1006940044c0a90044e0a9004480a900120020003d
:1006a40080072000a10920003374200080497800cd
:1006b40081497800824978001200200060042000fb
:1006c4007105200023742000804978008149780056
:1006d4008249780000000000103a80006100600048
:1006e4000000e000fcff3a000080fa000000060071
:1006f4000000fa00003a80000080fa0000000600c2
:100704000200fa00faff0700000f78001e007800cc
:10071400240007000004e00002003200000028006a
:10072400710007001e0078002a0007000004e000a2
:1007340002003200000024006b0007001e00780055
:10074400320007000004e000020032000020200014
:10075400650007001e0078003a0007000004e0006e
:1007640002003200000820005f0007001e0078002d
:10077400420007000004e0000200320000042000f0
:10078400590007001e0078004a0007000004e0003a
:100794000200320000012000530007000080fa002c
:1007a400000006000400fa00100798000040eb0067
:1007b400004f78001e0090000000e00002003d00a1
:1007c40010c0b300004f78001e4078000080fa008b
:1007d400000006000400fa00100798000040eb0037
:1007e400004f78009e00900000002400008060000c
:1007f4000000e0000200320010c0b300004f780097
:100804001e4078000080fa00000006000400fa0090
:10081400100798000040eb00004f78009e00900005
:1008240000202000008060000000e0000200320090
:1008340010c0b300004f78001e4078000080fa001a
:10084400000006000400fa00100798000040eb00c6
:10085400004f78009e009000000820000080600097
:100864000000e0000200320010c0b300004f780026
:100874001e4078000080fa00000006000400fa0020
:10088400100798000040eb00004f78009e00900095
:1008940000042000008060000000e000020032003c
:1008a40010c0b300004f78001e4078000080fa00aa
:1008b400000006000400fa00100798000040eb0056
:1008c400004f78001e009000700060000000e000ff
:1008d4000200320010c0b300004f78001e407800c0
:1008e4000080fa00000006000200fa00000f780001
:1008f4009e80ea00003a800000806000003a880090
:100904000080fa00000006000000fa004027ef0013
:100914000080fa00000006000000fa00003a80009f
:100924000080fa00000006000200fa00faff070047
:10093400000f78001e007800240007000004e00087
:100944000200320000002800710007001e00780039
:100954002a0007000004e000020032000000240026
:100964006b0007001e007800320007000004e0005e
:100974000200320000202000650007001e007800fd
:100984003a0007000004e0000200320000082000e2
:100994005f0007001e007800420007000004e0002a
:1009a4000200320000042000590007001e007800f5
:1009b4004a0007000004e0000200320000012000a9
:1009c400530007000080fa00000006000400fa004b
:1009d400100798000040eb00004f78001e009000c4
:1009e4000000e00002003d0010c0b300004f78009a
:1009f4001e4078000080fa00000006000400fa009f
:100a0400100798000040eb00004f78009e00900013
:100a140000002400008060000000e00002003200ba
:100a240010c0b300004f78001e4078000080fa0028
:100a3400000006000400fa00100798000040eb00d4
:100a4400004f78009e00900000202000008060008d
:100a54000000e0000200320010c0b300004f780034
:100a64001e4078000080fa00000006000400fa002e
:100a7400100798000040eb00004f78009e009000a3
:100a840000082000008060000000e0000200320046
:100a940010c0b300004f78001e4078000080fa00b8
:100aa400000006000400fa00100798000040eb0064
:100ab400004f78009e009000000420000080600039
:100ac4000000e0000200320010c0b300004f7800c4
:100ad4001e4078000080fa00000006000400fa00be
:100ae400100798000040eb00004f78001e009000b3
:100af400700060000000e0000200320010c0b3008b
:100b0400004f78001e4078000080fa0000000600c4
:100b14000200fa00000f78009e80ea00003a80008c
:100b240000806000003a88000080fa00000006009f
:100b34000000fa004027ef000080fa0000000600e1
:100b44000000fa00022cef008038210020608800a9
:100b5400062cef000a2cef001a2cef001e2cef00dd
:100b6400202cef00402cef00602cef000000280048
:100b7400e3c1200011322400d2bc2a00820978008b
:100b8400810978001061880000002c00e3c1200076
:100b940011322400d2bc2a0082097800810978002d
:100ba4001062880000002c00e3c1200011322400f0
:100bb400d2bc2a0082097800810978001063880079
:100bc400b00f2000e3c1200011322400d2bc2a005f
:100bd400820978008109780020618800800f200054
:100be400e3c1200011322400d2bc2a00820978001b
:100bf4008109780020628800800f2000e3c1200072
:100c040011322400d2bc2a008209780081097800bc
:100c1400206388008038210030618800c0d421001e
:100c240030628800662cef00282cef00482cef007f
:100c3400682cef002a2cef004a2cef006a2cef00fe
:100c44002c2cef004c2cef006c2cef00322cef001e
:100c5400522cef00722cef00342cef00542cef00d8
:100c6400742cef003a2cef005a2cef007a2cef0092
:100c74003c2cef005c2cef007c2cef003e2cef00b2
:100c84005e2cef007e2cef0000002800006088003e
:100c94000080fa00000006000000fa0000102300a3
:100ca400203a88004827ef004e27ef000004200078
:100cb400303a88004420a90044c0a90044e0a900b7
:100cc4004480a9001200200080072000a109200010
:100cd4003374200080497800814978008249780083
:100ce40012002000600420007105200023742000fd
:100cf400804978008149780082497800000000002a
:100d0400103a8000610060000000e000fcff3a003f
:100d14000080fa00000006000200fa00000f7800cc
:100d240021028000200f2000008060001e0070005f
:100d3400200288000080fa00000006000000fa008b
:100d4400c3e8a80000000000000000000080fa00d2
:100d5400000006000000fa000800070044fe070037
:100d64002f00070076ff0700f4ff070000022000b1
:100d7400e9ff07000080fa00000006000000fa0006
:100d8400042eef00142eef00700120000070880084
:100d9400f0ff2a00807088000c2eef001c2eef005c
:100da4000a2eef001a2eef00062eef00162eef008b
:100db400300120007070880030102000f07088002e
:100dc4000080fa0000000600000f78009e00780002
:100dd40001818800ffff37000000fa0000002100b5
:100de4008007780080012100000188000080fa005b
:040df40000000600f5
:020000040000fa
:100df800201000000200000082000000ffff000039
:100e0800001000002000000080000000000000002a
:020000040000fa
:100e18000000fa00ceff0700ffff37000000fa00cd
:080e28000080fa000000060042
:020000040000fa
:04afe000cfff00009f
:020000040000fa
:04afe400cfff00009b
:020000040000fa
:04afe8007fff0000e7
:020000040000fa
:04afec007fff0000e3
:020000040000fa
:04aff000f8ff000066
:020000040000fa
:04aff400ffff00005b
:00000001FF
