:020000040000fa
:080000000002040000000000f2
:020000040000fa
:04000800fa020000f8
:020000040000fa
:04000c000c030000e1
:020000040000fa
:0400100024030000c5
:020000040000fa
:0400140002030000e3
:020000040000fa
:0400180014030000cd
:020000040000fa
:04001c001c030000c1
:020000040000fa
:040020002c030000ad
:020000040000fa
:0400240034030000a1
:020000040000fa
:04002800340300009d
:020000040000fa
:04002c003403000099
:020000040000fa
:040030003403000095
:020000040000fa
:040034003403000091
:020000040000fa
:04003800340300008d
:020000040000fa
:04003c003403000089
:020000040000fa
:040040003403000085
:020000040000fa
:040044003403000081
:020000040000fa
:04004800340300007d
:020000040000fa
:04004c003403000079
:020000040000fa
:040050003403000075
:020000040000fa
:040054003403000071
:020000040000fa
:04005800340300006d
:020000040000fa
:04005c003403000069
:020000040000fa
:040060003403000065
:020000040000fa
:040064003403000061
:020000040000fa
:04006800340300005d
:020000040000fa
:04006c003403000059
:020000040000fa
:040070003403000055
:020000040000fa
:040074003403000051
:020000040000fa
:04007800340300004d
:020000040000fa
:04007c003403000049
:020000040000fa
:040080003403000045
:020000040000fa
:040084003403000041
:020000040000fa
:04008800340300003d
:020000040000fa
:04008c003403000039
:020000040000fa
:040090003403000035
:020000040000fa
:040094003403000031
:020000040000fa
:04009800340300002d
:020000040000fa
:04009c003403000029
:020000040000fa
:0400a0003403000025
:020000040000fa
:0400a4003403000021
:020000040000fa
:0400a800340300001d
:020000040000fa
:0400ac003403000019
:020000040000fa
:0400b0003403000015
:020000040000fa
:0400b4003403000011
:020000040000fa
:0400b800340300000d
:020000040000fa
:0400bc003403000009
:020000040000fa
:0400c0003403000005
:020000040000fa
:0400c4003403000001
:020000040000fa
:0400c80034030000fd
:020000040000fa
:0400cc0034030000f9
:020000040000fa
:0400d00034030000f5
:020000040000fa
:0400d40034030000f1
:020000040000fa
:0400d80034030000ed
:020000040000fa
:0400dc0034030000e9
:020000040000fa
:0400e00034030000e5
:020000040000fa
:0400e40034030000e1
:020000040000fa
:0400e80034030000dd
:020000040000fa
:0400ec0034030000d9
:020000040000fa
:0400f00034030000d5
:020000040000fa
:0400f40034030000d1
:020000040000fa
:0400f80034030000cd
:020000040000fa
:0400fc0034030000c9
:020000040000fa
:0401000034030000c4
:020000040000fa
:0401040034030000c0
:020000040000fa
:0401080034030000bc
:020000040000fa
:04010c0034030000b8
:020000040000fa
:0401100034030000b4
:020000040000fa
:0401140034030000b0
:020000040000fa
:0401180034030000ac
:020000040000fa
:04011c0034030000a8
:020000040000fa
:0401200034030000a4
:020000040000fa
:0401240034030000a0
:020000040000fa
:04012800340300009c
:020000040000fa
:04012c003403000098
:020000040000fa
:040130003403000094
:020000040000fa
:040134003403000090
:020000040000fa
:04013800340300008c
:020000040000fa
:04013c003403000088
:020000040000fa
:040140003403000084
:020000040000fa
:040144003403000080
:020000040000fa
:04014800340300007c
:020000040000fa
:04014c003403000078
:020000040000fa
:040150003403000074
:020000040000fa
:040154003403000070
:020000040000fa
:04015800340300006c
:020000040000fa
:04015c003403000068
:020000040000fa
:040160003403000064
:020000040000fa
:040164003403000060
:020000040000fa
:04016800340300005c
:020000040000fa
:04016c003403000058
:020000040000fa
:040170003403000054
:020000040000fa
:040174003403000050
:020000040000fa
:04017800340300004c
:020000040000fa
:04017c003403000048
:020000040000fa
:040180003403000044
:020000040000fa
:040184003403000040
:020000040000fa
:04018800340300003c
:020000040000fa
:04018c003403000038
:020000040000fa
:040190003403000034
:020000040000fa
:040194003403000030
:020000040000fa
:04019800340300002c
:020000040000fa
:04019c003403000028
:020000040000fa
:0401a0003403000024
:020000040000fa
:0401a4003403000020
:020000040000fa
:0401a800340300001c
:020000040000fa
:0401ac003403000018
:020000040000fa
:0401b0003403000014
:020000040000fa
:0401b4003403000010
:020000040000fa
:0401b800340300000c
:020000040000fa
:0401bc003403000008
:020000040000fa
:0401c0003403000004
:020000040000fa
:0401c4003403000000
:020000040000fa
:0401c80034030000fc
:020000040000fa
:0401cc0034030000f8
:020000040000fa
:0401d00034030000f4
:020000040000fa
:0401d40034030000f0
:020000040000fa
:0401d80034030000ec
:020000040000fa
:0401dc0034030000e8
:020000040000fa
:0401e00034030000e4
:020000040000fa
:0401e40034030000e0
:020000040000fa
:0401e80034030000dc
:020000040000fa
:0401ec0034030000d8
:020000040000fa
:0401f00034030000d4
:020000040000fa
:0401f40034030000d0
:020000040000fa
:0401f80034030000cc
:020000040000fa
:0401fc0034030000c8
:020000040000fa
:0402000034030000c3
:020000040000fa
:0402040034030000bf
:020000040000fa
:0402080034030000bb
:020000040000fa
:04020c0034030000b7
:020000040000fa
:0402100034030000b3
:020000040000fa
:0402140034030000af
:020000040000fa
:0402180034030000ab
:020000040000fa
:04021c0034030000a7
:020000040000fa
:0402200034030000a3
:020000040000fa
:04022400340300009f
:020000040000fa
:04022800340300009b
:020000040000fa
:04022c003403000097
:020000040000fa
:040230003403000093
:020000040000fa
:04023400340300008f
:020000040000fa
:04023800340300008b
:020000040000fa
:04023c003403000087
:020000040000fa
:040240003403000083
:020000040000fa
:04024400340300007f
:020000040000fa
:04024800340300007b
:020000040000fa
:04024c003403000077
:020000040000fa
:040250003403000073
:020000040000fa
:04025400340300006f
:020000040000fa
:04025800340300006b
:020000040000fa
:04025c003403000067
:020000040000fa
:040260003403000063
:020000040000fa
:04026400340300005f
:020000040000fa
:04026800340300005b
:020000040000fa
:04026c003403000057
:020000040000fa
:040270003403000053
:020000040000fa
:04027400340300004f
:020000040000fa
:04027800340300004b
:020000040000fa
:04027c003403000047
:020000040000fa
:040280003403000043
:020000040000fa
:100400002f0221000eff21000e01880000000000d5
:10041000000020000000e000020032000001200087
:100420002002880014000700910007000000e0008f
:1004300003003a00608b200001002000020037001a
:100440000000200001002000810f70000100320038
:100450000f000700000020000000e0000200320052
:1004600000000200000000009007020000000000f1
:100470000040da000000fe00200020000000e00044
:1004800002003200100020009001880000000600e9
:10049000a1028800800478000000eb001f003700f4
:1004a000e284440054a0b4009905ba00e2844400f8
:1004b00054a0b4009906ba00e284440054a0b400e9
:1004c0000006eb00476fde00fd07b200ae018800ba
:1004d000636ce10003003a000ad801000000eb0061
:1004e0000e003700606ce10008003a00004deb00a0
:1004f0000a05e800020039003420ec000af0a000f0
:100500008b05e900f9ff3e00040037006168e10057
:10051000010032000086eb000b00070019c7ba008b
:100520000e04e0001905ba0003003a000a00e000da
:10053000dbff3a0000000600fe07b200ae028800b2
:100540008a047800f5ff37000cd0a300e20f4d00bd
:100550001c00390089027800354dba000a05e80010
:10056000020039003420ec000af0a0008b05e900fd
:100570000f003200254dba000a05e80002003900dc
:100580003420ec000af0a0008b05e90008003200de
:100590000c00e0000600320015cdba000a05e800a4
:1005a000020039003420ec000af0a0008b05e900bd
:1005b0008984e80054a0b4000b00e000e2ff3a0098
:1005c000000006009902ba00055d78008b05e9007d
:1005d000f7ff3200c82ade00055d78008b05e900d0
:1005e000f3ff32000c00e000f1ff320019ddba0029
:1005f000eeff37003600f800c028a9000000eb002d
:10060000cf0207003600f800d1020700c048a90059
:1006100010002000ca0207003600f800c068a900d8
:1006200020002000c60207003600f800c088a9009c
:1006300030002000c20207003600f800c0a8a90060
:1006400040002000be0207003600f800c608a900de
:1006500070002000ba0207003600f800c488a90024
:10066000a0002000b60207000040da000000fe00f3
:040670000000050081
:020000040000fa
:100674000000fa0000022000101288001000200080
:1006840020128800c0002800001288000080fa00b0
:10069400000006000400fa00000f7800110798001b
:1006a4000000000000128000620060000000e00012
:1006b400fcff3a001e007800104078000080fb0028
:1006c4004012880000000000011280000002200097
:1006d400008060000000e000fbff3a004012800050
:1006e400804078001e009000014878000080fa00e5
:1006f400000006001800fa00100f9800210f98005f
:10070400320f98000000eb00000f78000000eb00af
:10071400100798000000eb00700798000000eb0041
:10072400000f980010002000600798001e08900039
:100734000000e00005003a000000eb0050079800bc
:10074400700047002007980004003700ee00900076
:10075400510798009e089000210798003e089000d9
:100764000000e00005003a000000eb00400798009c
:100774006e0047003007980005003700ee00900037
:1007840041079800be08900031079800000000005f
:1007940000128000620060000000e000fcff3a00ec
:1007a4001d00370000128000620060000000e000bd
:1007b40009003a002e009000104078000080fb00f1
:1007c40040128800ae0090005e009000008040005f
:1007d400200798001e0fe80001128000000220008c
:1007e400008060000000e0000b003a00401280002e
:1007f400804078003e00900001487800be009000e0
:100804004e00900000804000300798001e009000c9
:100814000000e800100798002e0890009e00780061
:10082400808f5000dfff3900100037000112800074
:1008340000022000008060000000e0000b003a008d
:1008440040128000804078003e009000014878000b
:10085400be0090004e0090000080400030079800d9
:100864001e0090000000e800100798009e00900011
:100874002e089000808f5000ecff39001e00780095
:100884000080fa00000006000400fa0020479800e7
:100894000e80e8008e0078007eff07001e4078007e
:1008a4000080fa00000006000600fa00000f78003d
:1008b40011079800220798002e0190009e009000d6
:1008c4001e0078008bff07000080fa00000006007d
:1008d4000000fa0011128000004020000080600037
:1008e4000000e00002003a000000eb0001003700c5
:1008f400100020000080fa00000006000000fa004a
:10090400001280000080fa00000006000000fa00d7
:1009140000042300203a88004827ef004e27ef0008
:1009240020032000303a88004420a90044c0a900d4
:1009340044e0a9004480a900720020008007200040
:10094400a10920003374200080497800814978008f
:10095400824978000001eb0060042000710520004a
:100964002374200080497800814978008249780006
:100974000080fa00000006000000fa00003a80003f
:100984000080fa00000006000200fa00faff0700e7
:10099400000f78001e007800240007000004e00027
:1009a4000200320000002800710007001e007800d9
:1009b4002a0007000004e0000200320000002400c6
:1009c4006b0007001e007800320007000004e000fe
:1009d4000200320000202000650007001e0078009d
:1009e4003a0007000004e000020032000008200082
:1009f4005f0007001e007800420007000004e000ca
:100a04000200320000042000590007001e00780094
:100a14004a0007000004e000020032000001200048
:100a2400530007000080fa00000006000400fa00ea
:100a3400100798000040eb00004f78001e00900063
:100a44000000e00002003d0010c0b300004f780039
:100a54001e4078000080fa00000006000400fa003e
:100a6400100798000040eb00004f78009e009000b3
:100a740000002400008060000000e000020032005a
:100a840010c0b300004f78001e4078000080fa00c8
:100a9400000006000400fa00100798000040eb0074
:100aa400004f78009e00900000202000008060002d
:100ab4000000e0000200320010c0b300004f7800d4
:100ac4001e4078000080fa00000006000400fa00ce
:100ad400100798000040eb00004f78009e00900043
:100ae40000082000008060000000e00002003200e6
:100af40010c0b300004f78001e4078000080fa0058
:100b0400000006000400fa00100798000040eb0003
:100b1400004f78009e0090000004200000806000d8
:100b24000000e0000200320010c0b300004f780063
:100b34001e4078000080fa00000006000400fa005d
:100b4400100798000040eb00004f78001e00900052
:100b5400700060000000e0000200320010c0b3002a
:100b6400004f78001e4078000080fa000000060064
:100b74000200fa00000f78009e80ea00003a80002c
:100b840000806000003a88000080fa00000006003f
:100b94000000fa004027ef000080fa000000060081
:100ba4000000fa00003a80000080fa00000006000d
:100bb4000200fa00faff0700000f78001e00780018
:100bc400240007000004e0000200320000002800b6
:100bd400710007001e0078002a0007000004e000ee
:100be40002003200000024006b0007001e007800a1
:100bf400320007000004e000020032000020200060
:100c0400650007001e0078003a0007000004e000b9
:100c140002003200000820005f0007001e00780078
:100c2400420007000004e00002003200000420003b
:100c3400590007001e0078004a0007000004e00085
:100c44000200320000012000530007000080fa0077
:100c5400000006000400fa00100798000040eb00b2
:100c6400004f78001e0090000000e00002003d00ec
:100c740010c0b300004f78001e4078000080fa00d6
:100c8400000006000400fa00100798000040eb0082
:100c9400004f78009e009000000024000080600057
:100ca4000000e0000200320010c0b300004f7800e2
:100cb4001e4078000080fa00000006000400fa00dc
:100cc400100798000040eb00004f78009e00900051
:100cd40000202000008060000000e00002003200dc
:100ce40010c0b300004f78001e4078000080fa0066
:100cf400000006000400fa00100798000040eb0012
:100d0400004f78009e0090000008200000806000e2
:100d14000000e0000200320010c0b300004f780071
:100d24001e4078000080fa00000006000400fa006b
:100d3400100798000040eb00004f78009e009000e0
:100d440000042000008060000000e0000200320087
:100d540010c0b300004f78001e4078000080fa00f5
:100d6400000006000400fa00100798000040eb00a1
:100d7400004f78001e009000700060000000e0004a
:100d84000200320010c0b300004f78001e4078000b
:100d94000080fa00000006000200fa00000f78004c
:100da4009e80ea00003a800000806000003a8800db
:100db4000080fa00000006000000fa004027ef005f
:100dc4000080fa00000006000000fa00022cef0088
:100dd4000080eb0020608800062cef00f0ff270065
:100de400506088001a2cef001e2cef00202cef001e
:100df400402cef00602cef0000002c00e3c1200029
:100e040011322400d2bc2a008209780081097800ba
:100e14001061880000002c00e3c12000113224007e
:100e2400d2bc2a0082097800810978001062880007
:100e340000002c00e3c1200011322400d2bc2a009f
:100e4400820978008109780010638800b00f2000bf
:100e5400e3c1200011322400d2bc2a0082097800a8
:100e64008109780020618800800f2000e3c1200000
:100e740011322400d2bc2a0082097800810978004a
:100e840020628800800f2000e3c12000113224007a
:100e9400d2bc2a0082097800810978002063880086
:100ea400262cef00462cef00662cef00282cef00d8
:100eb400482cef00682cef002a2cef004a2cef009e
:100ec4006a2cef002c2cef004c2cef006c2cef0064
:100ed400322cef00522cef00722cef00342cef0078
:100ee400542cef00742cef003a2cef005a2cef0036
:100ef4007a2cef003c2cef005c2cef007c2cef00f4
:100f04003e2cef005e2cef007e2cef00000028004a
:100f1400006088000080fa00000006000400fa0067
:100f24000000eb00000f7800c0ccb300204798000d
:100f34000040eb003047980057000700158ea900c9
:100f440015aea90080f92a00810a20006d0007006f
:100f54002e4090000080fb004bfe070030479800b5
:100f6400be409000b0cbb30080cf50001c003a00cc
:100f7400a07080004c00de00614060000004a2000c
:100f8400614060000080fb00610060004c00dd00f7
:100f9400a2708000f1ff2e0081006100010070004a
:100fa400a0708800a07080004d00de0061406000e9
:100fb4000004a200614060000080fb00610060004a
:100fc4004d00dd00a2708000f1ff2d008100610062
:100fd40001007000a0708800a0cab30030479800d8
:100fe40080a823008103200046000700d8ff3700b3
:100ff4000000fa0000042300203a88004827ef008c
:101004004e27ef0020032000303a88004420a90036
:1010140044c0a90044e0a9004480a9007200200053
:1010240080072000a1092000337420008049780043
:1010340081497800824978000001eb0060042000b7
:1010440071052000237420008049780081497800cc
:10105400824978000080fa00000006000200fa00cd
:10106400000f780021028000200f20000080600023
:101074001e007000200288000080fa0000000600b4
:101084000000fa00c3e8a90000000000000000000e
:101094000080fa00000006000000fa0009000700c2
:1010a4003900070019fe070047ff070070fd07001d
:1010b400f3ff070000022000e8ff07000080fa00a9
:1010c400000006000000fa00042eef00142eef00ca
:1010d400002eef00c0212000807088000c2eef004d
:1010e4001c2eef000a2eef001a2eef00062eef0042
:1010f400162eef000e2eef001e2eef000080fa00d9
:0411040000000600e1
:020000040000fa
:10110800f03fb1000180b10006003500ee03090090
:1011180000000000403fb1000180b100fbff3d002e
:101128001000b000203fb000020035000080090028
:081138000000000000000600a9
:020000040000fa
:10114000000f78009e00780001818800ffff3700c3
:101150000000fa00000021008007780080012100d3
:0c116000000188000080fa00000006007a
:020000040000fa
:10116c00201000000200000082000000ffff0000c1
:10117c0000100000200000008000000000000000b3
:020000040000fa
:0c118c000000fa000080fa0000000600dd
:020000040000fa
:04afe000cfff00009f
:020000040000fa
:04afe400cfff00009b
:020000040000fa
:04afe8007fff0000e7
:020000040000fa
:04afec00bfff0000a3
:020000040000fa
:04aff000ffff00005f
:020000040000fa
:04aff400ffff00005b
:00000001FF
