:020000040000fa
:080000000002040000000000f2
:020000040000fa
:04000800fa020000f8
:020000040000fa
:04000c000c030000e1
:020000040000fa
:0400100024030000c5
:020000040000fa
:0400140002030000e3
:020000040000fa
:0400180014030000cd
:020000040000fa
:04001c001c030000c1
:020000040000fa
:040020002c030000ad
:020000040000fa
:0400240034030000a1
:020000040000fa
:04002800340300009d
:020000040000fa
:04002c003403000099
:020000040000fa
:040030003403000095
:020000040000fa
:040034003403000091
:020000040000fa
:04003800340300008d
:020000040000fa
:04003c003403000089
:020000040000fa
:040040003403000085
:020000040000fa
:040044003403000081
:020000040000fa
:04004800340300007d
:020000040000fa
:04004c003403000079
:020000040000fa
:040050003403000075
:020000040000fa
:040054003403000071
:020000040000fa
:04005800340300006d
:020000040000fa
:04005c003403000069
:020000040000fa
:040060003403000065
:020000040000fa
:040064003403000061
:020000040000fa
:04006800340300005d
:020000040000fa
:04006c003403000059
:020000040000fa
:040070003403000055
:020000040000fa
:040074003403000051
:020000040000fa
:04007800340300004d
:020000040000fa
:04007c003403000049
:020000040000fa
:040080003403000045
:020000040000fa
:040084003403000041
:020000040000fa
:04008800340300003d
:020000040000fa
:04008c003403000039
:020000040000fa
:040090003403000035
:020000040000fa
:040094003403000031
:020000040000fa
:04009800340300002d
:020000040000fa
:04009c003403000029
:020000040000fa
:0400a0003403000025
:020000040000fa
:0400a4003403000021
:020000040000fa
:0400a800340300001d
:020000040000fa
:0400ac003403000019
:020000040000fa
:0400b0003403000015
:020000040000fa
:0400b4003403000011
:020000040000fa
:0400b800340300000d
:020000040000fa
:0400bc003403000009
:020000040000fa
:0400c0003403000005
:020000040000fa
:0400c4003403000001
:020000040000fa
:0400c80034030000fd
:020000040000fa
:0400cc0034030000f9
:020000040000fa
:0400d00034030000f5
:020000040000fa
:0400d40034030000f1
:020000040000fa
:0400d80034030000ed
:020000040000fa
:0400dc0034030000e9
:020000040000fa
:0400e00034030000e5
:020000040000fa
:0400e40034030000e1
:020000040000fa
:0400e80034030000dd
:020000040000fa
:0400ec0034030000d9
:020000040000fa
:0400f00034030000d5
:020000040000fa
:0400f40034030000d1
:020000040000fa
:0400f80034030000cd
:020000040000fa
:0400fc0034030000c9
:020000040000fa
:0401000034030000c4
:020000040000fa
:0401040034030000c0
:020000040000fa
:0401080034030000bc
:020000040000fa
:04010c0034030000b8
:020000040000fa
:0401100034030000b4
:020000040000fa
:0401140034030000b0
:020000040000fa
:0401180034030000ac
:020000040000fa
:04011c0034030000a8
:020000040000fa
:0401200034030000a4
:020000040000fa
:0401240034030000a0
:020000040000fa
:04012800340300009c
:020000040000fa
:04012c003403000098
:020000040000fa
:040130003403000094
:020000040000fa
:040134003403000090
:020000040000fa
:04013800340300008c
:020000040000fa
:04013c003403000088
:020000040000fa
:040140003403000084
:020000040000fa
:040144003403000080
:020000040000fa
:04014800340300007c
:020000040000fa
:04014c003403000078
:020000040000fa
:040150003403000074
:020000040000fa
:040154003403000070
:020000040000fa
:04015800340300006c
:020000040000fa
:04015c003403000068
:020000040000fa
:040160003403000064
:020000040000fa
:040164003403000060
:020000040000fa
:04016800340300005c
:020000040000fa
:04016c003403000058
:020000040000fa
:040170003403000054
:020000040000fa
:040174003403000050
:020000040000fa
:04017800340300004c
:020000040000fa
:04017c003403000048
:020000040000fa
:040180003403000044
:020000040000fa
:040184003403000040
:020000040000fa
:04018800340300003c
:020000040000fa
:04018c003403000038
:020000040000fa
:040190003403000034
:020000040000fa
:040194003403000030
:020000040000fa
:04019800340300002c
:020000040000fa
:04019c003403000028
:020000040000fa
:0401a0003403000024
:020000040000fa
:0401a4003403000020
:020000040000fa
:0401a800340300001c
:020000040000fa
:0401ac003403000018
:020000040000fa
:0401b0003403000014
:020000040000fa
:0401b4003403000010
:020000040000fa
:0401b800340300000c
:020000040000fa
:0401bc003403000008
:020000040000fa
:0401c0003403000004
:020000040000fa
:0401c4003403000000
:020000040000fa
:0401c80034030000fc
:020000040000fa
:0401cc0034030000f8
:020000040000fa
:0401d00034030000f4
:020000040000fa
:0401d40034030000f0
:020000040000fa
:0401d80034030000ec
:020000040000fa
:0401dc0034030000e8
:020000040000fa
:0401e00034030000e4
:020000040000fa
:0401e40034030000e0
:020000040000fa
:0401e80034030000dc
:020000040000fa
:0401ec0034030000d8
:020000040000fa
:0401f00034030000d4
:020000040000fa
:0401f40034030000d0
:020000040000fa
:0401f80034030000cc
:020000040000fa
:0401fc0034030000c8
:020000040000fa
:0402000034030000c3
:020000040000fa
:0402040034030000bf
:020000040000fa
:0402080034030000bb
:020000040000fa
:04020c0034030000b7
:020000040000fa
:0402100034030000b3
:020000040000fa
:0402140034030000af
:020000040000fa
:0402180034030000ab
:020000040000fa
:04021c0034030000a7
:020000040000fa
:0402200034030000a3
:020000040000fa
:04022400340300009f
:020000040000fa
:04022800340300009b
:020000040000fa
:04022c003403000097
:020000040000fa
:040230003403000093
:020000040000fa
:04023400340300008f
:020000040000fa
:04023800340300008b
:020000040000fa
:04023c003403000087
:020000040000fa
:040240003403000083
:020000040000fa
:04024400340300007f
:020000040000fa
:04024800340300007b
:020000040000fa
:04024c003403000077
:020000040000fa
:040250003403000073
:020000040000fa
:04025400340300006f
:020000040000fa
:04025800340300006b
:020000040000fa
:04025c003403000067
:020000040000fa
:040260003403000063
:020000040000fa
:04026400340300005f
:020000040000fa
:04026800340300005b
:020000040000fa
:04026c003403000057
:020000040000fa
:040270003403000053
:020000040000fa
:04027400340300004f
:020000040000fa
:04027800340300004b
:020000040000fa
:04027c003403000047
:020000040000fa
:040280003403000043
:020000040000fa
:100400002f0221000eff21000e01880000000000d5
:10041000000020000000e000020032000001200087
:100420002002880014000700910007000000e0008f
:1004300003003a00608e2000010020000200370017
:100440000000200001002000810f70000100320038
:100450000f000700000020000000e0000200320052
:1004600000000200000000008a04020000000000fa
:100470000040da000000fe00800120000000e000e3
:1004800002003200002020009001880000000600d9
:10049000a1028800800478000000eb001f003700f4
:1004a000e284440054a0b4009905ba00e2844400f8
:1004b00054a0b4009906ba00e284440054a0b400e9
:1004c0000006eb00476fde00fd07b200ae018800ba
:1004d000636ce10003003a000ad801000000eb0061
:1004e0000e003700606ce10008003a00004deb00a0
:1004f0000a05e800020039003420ec000af0a000f0
:100500008b05e900f9ff3e00040037006168e10057
:10051000010032000086eb000b00070019c7ba008b
:100520000e04e0001905ba0003003a000a00e000da
:10053000dbff3a0000000600fe07b200ae028800b2
:100540008a047800f5ff37000cd0a300e20f4d00bd
:100550001c00390089027800354dba000a05e80010
:10056000020039003420ec000af0a0008b05e900fd
:100570000f003200254dba000a05e80002003900dc
:100580003420ec000af0a0008b05e90008003200de
:100590000c00e0000600320015cdba000a05e800a4
:1005a000020039003420ec000af0a0008b05e900bd
:1005b0008984e80054a0b4000b00e000e2ff3a0098
:1005c000000006009902ba00055d78008b05e9007d
:1005d000f7ff3200c82ade00055d78008b05e900d0
:1005e000f3ff32000c00e000f1ff320019ddba0029
:1005f000eeff37003600f800c028a9000000eb002d
:10060000e70207003600f800e9020700c048a90029
:1006100010002000e20207003600f800c068a900c0
:1006200020002000de0207003600f800c088a90084
:1006300030002000da0207003600f800c0a8a90048
:1006400040002000d60207003600f800c608a900c6
:1006500070002000d20207003600f800c488a9000c
:10066000a0002000ce0207000040da000000fe00db
:040670000000050081
:020000040000fa
:10067400f28f000032070000b8000000fc230000e5
:10068400f8470000f28f0000cc010000990300003d
:10069400320700002e0000005c000000b8000000db
:020000040000fa
:1006a4000200fa00000f78009e00780021608800a4
:1006b4000080fa00000006000400fa00000f780031
:1006c400110798001e007800e20f50000700320066
:1006d400e30f500008003200e10f50000a003a0016
:1006e4009e00900031618800080037009e00900051
:1006f40031628800050037009e0090003163880055
:100704000000000001003700000000000080fa0033
:10071400000006000200fa00004f7800114798001c
:10072400040ea900042ea900140ea90014eea900b9
:10073400150ea900152ea9001e80fb00e10f500024
:1007440023003200e20f5000400032000000e000bd
:1007540063003a00040ea8001e4090000080fb00d5
:10076400e10f50000b003200e20f50001000320085
:100774000000e00055003a0014eea80020ff280015
:10078400c7ff0700c13f220010002000caff070076
:100794000e003700150ea80020732000c0ff0700cc
:1007a400c11c200010002000c3ff07000700370011
:1007b400152ea800800b2000b9ff0700e1022000dd
:1007c40010002000bcff07000000000044003700b8
:1007d400042ea8001e4090000080fb00e10f500092
:1007e4000b003200e20f5000100032000000e00065
:1007f40038003a0014eea80020ff2800a8ff0700e4
:10080400817f240010002000abff07000e0037009a
:10081400150ea80020732000a1ff070091392000c5
:1008240010002000a4ff070007003700152ea800c1
:10083400800b20009aff0700c10520001000200053
:100844009dff07000000000025003700140ea800db
:100854001e4090000080fb00e10f50000b003200ae
:10086400e20f5000100032000000e0001b003a00cc
:1008740014eea80020ff280089ff070021ff2800ac
:10088400100020008cff07000e003700150ea80092
:100894002073200082ff0700217320001000200035
:1008a40085ff070007003700152ea800800b2000e5
:1008b4007bff0700810b2000100020007eff070053
:1008c40000000000000000000500370000000000e8
:1008d40003003700000000000100370000000000a2
:1008e4000080fa00000006000200fa00000f780001
:1008f4001e0078000000e00002003a001000200012
:10090400010037000000eb000080fa000000060040
:100914000600fa000040eb00004f78000040eb00b6
:100924001047980010c0b3002047980010c0b300cf
:100934003047980010c0b30040479800eb0107000f
:10094400907080004500de00614060000080fb0084
:10095400e5ff07000000e0000e0032002e4090008a
:100964000004e0000d0032001e4fe8001e40780035
:10097400e34f500002003a000040eb00004f7800c3
:100984000040eb002047980010c0b3004047980097
:100994000200370010c0b300204798009070800018
:1009a4004600de00614060000080fb00ceff0700cf
:1009b4000000e000100032003e4090000004e0001f
:1009c4000f0032001e4090000040e80010479800dd
:1009d4001e409000e34f500002003a000040eb003c
:1009e400104798000040eb003047980010c0b30057
:1009f400404798000200370010c0b3003047980009
:100a04004e4090000004e000050032009e4090003b
:100a14001e4078003fff07000040eb00404798006d
:100a2400a0fb2c0021002000ce010700c4ff3700ea
:100a34000000fa0000142300203a88004827ef0041
:100a44004e27ef0020032000303a88004420a900fc
:100a540044c0a90044e0a9004480a9000001eb00bf
:100a640080072000a1092000337420008049780009
:100a740081497800824978000001eb00600420007d
:100a84007105200023742000804978008149780092
:100a9400824978000080fa00000006000000fa0095
:100aa400003a80000080fa00000006000200fa000c
:100ab400faff0700000f78001e00780024000700ea
:100ac4000004e0000200320000002800710007006a
:100ad4001e0078002a0007000004e0000200320033
:100ae400000024006b0007001e007800320007009d
:100af4000004e0000200320000202000650007002e
:100b04001e0078003a0007000004e00002003200f2
:100b1400000820005f0007001e0078004200070064
:100b24000004e00002003200000420005900070025
:100b34001e0078004a0007000004e00002003200b2
:100b440000012000530007000080fa0000000600a6
:100b54000400fa00100798000040eb00004f7800f2
:100b64001e0090000000e00002003d0010c0b30031
:100b7400004f78001e4078000080fa000000060054
:100b84000400fa00100798000040eb00004f7800c2
:100b94009e00900000002400008060000000e0003f
:100ba4000200320010c0b300004f78001e407800ed
:100bb4000080fa00000006000400fa001007980004
:100bc4000040eb00004f78009e00900000202000c1
:100bd400008060000000e0000200320010c0b3009a
:100be400004f78001e4078000080fa0000000600e4
:100bf4000400fa00100798000040eb00004f780052
:100c04009e00900000082000008060000000e000ca
:100c14000200320010c0b300004f78001e4078007c
:100c24000080fa00000006000400fa001007980093
:100c34000040eb00004f78009e009000000420006c
:100c4400008060000000e0000200320010c0b30029
:100c5400004f78001e4078000080fa000000060073
:100c64000400fa00100798000040eb00004f7800e1
:100c74001e009000700060000000e00002003200de
:100c840010c0b300004f78001e4078000080fa00c6
:100c9400000006000200fa00000f78009e80ea00bf
:100ca400003a800000806000003a88000080fa006a
:100cb400000006000000fa004027ef000080fa0060
:100cc400000006000000fa00003a80000080fa00ec
:100cd400000006000200fa00faff0700000f780087
:100ce4001e007800240007000004e0000200320027
:100cf40000002800710007001e0078002a00070089
:100d04000004e00002003200000024006b00070031
:100d14001e007800320007000004e00002003200e8
:100d240000202000650007001e0078003a0007003c
:100d34000004e00002003200000820005f00070009
:100d44001e007800420007000004e00002003200a8
:100d540000042000590007001e0078004a00070024
:100d64000004e000020032000001200053000700ec
:100d74000080fa00000006000400fa001007980042
:100d84000040eb00004f78001e0090000000e000df
:100d940002003d0010c0b300004f78001e407800f0
:100da4000080fa00000006000400fa001007980012
:100db4000040eb00004f78009e00900000002400eb
:100dc400008060000000e0000200320010c0b300a8
:100dd400004f78001e4078000080fa0000000600f2
:100de4000400fa00100798000040eb00004f780060
:100df4009e00900000202000008060000000e000c1
:100e04000200320010c0b300004f78001e4078008a
:100e14000080fa00000006000400fa0010079800a1
:100e24000040eb00004f78009e0090000008200076
:100e3400008060000000e0000200320010c0b30037
:100e4400004f78001e4078000080fa000000060081
:100e54000400fa00100798000040eb00004f7800ef
:100e64009e00900000042000008060000000e0006c
:100e74000200320010c0b300004f78001e4078001a
:100e84000080fa00000006000400fa001007980031
:100e94000040eb00004f78001e00900070006000de
:100ea4000000e0000200320010c0b300004f7800e0
:100eb4001e4078000080fa00000006000200fa00dc
:100ec400000f78009e80ea00003a800000806000f5
:100ed400003a88000080fa00000006000000fa00d2
:100ee4004027ef000080fa00000006000000fa002e
:100ef400200020001060880020ff28002060880067
:100f0400062cef000a2cef001a2cef001e2cef0029
:100f1400202cef00402cef00602cef0000002c0090
:100f2400e3c1200011322400d2bc2a0082097800d7
:100f3400810978001061880000002c00e3c12000c2
:100f440011322400d2bc2a00820978008109780079
:100f54001062880000002c00e3c12000113224003c
:100f6400d2bc2a00820978008109780010638800c5
:100f7400b00f2000e3c1200011322400d2bc2a00ab
:100f8400820978008109780020618800800f2000a0
:100f9400e3c1200011322400d2bc2a008209780067
:100fa4008109780020628800800f2000e3c12000be
:100fb40011322400d2bc2a00820978008109780009
:100fc40020638800c03f220030618800462cef0077
:100fd400662cef00282cef00482cef00682cef0063
:100fe4002a2cef004a2cef006a2cef002c2cef0087
:100ff4004c2cef006c2cef00322cef00522cef0045
:10100400722cef00342cef00542cef00742cef0002
:101014003a2cef005a2cef007a2cef003c2cef0016
:101024005c2cef007c2cef003e2cef005e2cef00dc
:101034007e2cef0000002800006088000080fa0089
:10104400000006000000fa0000142300203a880083
:101054004827ef004e27ef0020032000303a880095
:101064004420a90044c0a90044e0a9004480a90088
:101074000001eb0080072000a10920003374200048
:101084008049780081497800824978000001eb00aa
:10109400600420007105200023742000804978003a
:1010a40081497800824978000080fa000000060037
:1010b4000200fa00000f780021028000200f2000b7
:1010c400008060001e007000200288000080fa008a
:1010d400000006000000fa00c3e8a90000000000b8
:1010e400000000000080fa00000006000000fa0082
:1010f400080007003c0007004dfe07007bff0700c7
:10110400f4ff070000022000e9ff07000080fa0056
:10111400000006000000fa00042eef00142eef0079
:10112400c001200000708800e0c7230080708800a0
:101134000c2eef001c2eef000a2eef0000062000fc
:10114400d0708800062eef00162eef00000120005c
:101154007070880020002000f07088000080fa0081
:041164000000060081
:020000040000fa
:10116800f03fb1000180b10006003500ee03090030
:1011780000000000403fb1000180b100fbff3d00ce
:101188001000b000203fb0000200350000800900c8
:08119800000000000000060049
:020000040000fa
:1011a000000f78009e00780001818800ffff370063
:1011b0000000fa0000002100800778008001210073
:0c11c000000188000080fa00000006001a
:020000040000fa
:1011cc00201000000200000082000000ffff000061
:1011dc000010000020000000800000000000000053
:020000040000fa
:0c11ec000000fa000080fa00000006007d
:020000040000fa
:04afe000cfff00009f
:020000040000fa
:04afe400cfff00009b
:020000040000fa
:04afe8007fff0000e7
:020000040000fa
:04afec00bbff0000a7
:020000040000fa
:04aff000f8ff000066
:020000040000fa
:04aff400ffff00005b
:00000001FF
